:020000040000FA
:10000000C86500206D02000081020000830200002C
:10001000850200008502000085020000000000004B
:100020000000000000000000000000009903000034
:100030008502000000000000ED030000B988000008
:100040008502000085020000850200008502000094
:100050008502000085020000850200008502000084
:100060008502000085020000850200008502000074
:100070008502000085020000850200008502000064
:100080008502000085020000850200008502000054
:100090008502000085020000850200008502000044
:1000A0008502000085020000850200008502000034
:1000B0008502000085020000850200008502000024
:1000C0008502000085020000850200008502000014
:1000D0008502000085020000850200008502000004
:1000E0008502000000000000000000008502000002
:1000F00085020000850200008502000085020000E4
:1001000085020000850200008502000085020000D3
:1001100000000000000000008502000085020000D1
:1001200085020000850200008502000085020000B3
:1001300085020000850200008502000085020000A3
:1001400000000000000000000000000000000000AF
:100150008502000085020000850200008502000083
:10016000000000000000000000000000000000008F
:10017000000000000000000000000000000000007F
:10018000000000000000000000000000000000006F
:10019000000000000000000000000000000000005F
:1001A000000000000000000000000000000000004F
:1001B0008502000085020000850200008502000023
:1001C0008502000085020000850200008502000013
:1001D0008502000085020000850200008502000003
:1001E000850200008502000085020000000000007A
:1001F000000000008502000085020000850200006A
:1002000085020000850200000000000000000000E0
:1002100085020000850200008502000085020000C2
:1002200085020000850200008502000085020000B2
:1002300085020000850200008502000085020000A2
:100240008502000085020000850200008502000092
:100250008502000085020000850200008502000082
:100260008502000085020000850200004EF68850DD
:10027000CEF20000016841F47001016000F004B8A2
:10028000FEE7FEE7FEE7000000F002F800F05CF891
:100290000AA090E8000C82448344AAF10107DA45E1
:1002A00001D100F051F8AFF2090EBAE80F0013F0D7
:1002B000010F18BFFB1A43F001031847EC9A000026
:1002C0000C9B00000A444FF0000C10F8013B13F0A7
:1002D000070408BF10F8014B1D1108BF10F8015B9F
:1002E000641E05D010F8016B641E01F8016BF9D192
:1002F00013F0080F1EBF10F8014BAD1C0C1B09D1E9
:100300006D1E58BF01F801CBFAD505E014F8016B5A
:1003100001F8016B6D1EF9D59142D6D370470000EC
:100320000023002400250026103A28BF78C1FBD8FE
:10033000520728BF30C148BF0B6070471FB509F096
:10034000CDF91FBD10B510BD00F06EF91146FFF7D5
:10035000F5FF05F033F800F08CF903B4FFF7F2FF76
:1003600003BC00F08FF90000EFF3108072B6704705
:10037000EFF310807047EFF3108062B6704730BF24
:10038000704780F311887047EFF3118070470000C9
:100390000138FDD1704700002A4B19680868B0E8A1
:1003A000F04F80F30988BFF36F8F4FF0000080F3A8
:1003B000118870470000000006480068006880F35C
:1003C000088862B661B6BFF34F8FBFF36F8F00DF4F
:1003D00000BF00BF08ED00E0DFF80C00016841F449
:1003E00070010160704700BF88ED00E0EFF3098005
:1003F000BFF36F8F134B1A681EF0100F08BF20ED6C
:10040000108A20E9F04F106008B44FF0400080F3EC
:100410001188BFF34F8FBFF36F8F08F09DF94FF036
:10042000000080F3118808BC19680868B0E8F04F34
:100430001EF0100F08BFB0EC108A80F30988BFF3DC
:100440006F8F704794020020EFF305807047000023
:1004500002480349034A044B70470000C85F00206C
:10046000C8650020C8610020C8610020032A40F24E
:10047000308010F0030C00F0158011F8013BBCF146
:10048000020F624498BF11F801CB00F8013B38BF5E
:1004900011F8013BA2F1040298BF00F801CB38BF6C
:1004A00000F8013B11F0030300F02580083AC0F08A
:1004B000088051F8043B083A51F804CBA0E8081032
:1004C000F5E7121D5CBF51F8043B40F8043BAFF365
:1004D0000080D20724BF11F8013B11F801CB48BFBF
:1004E00011F8012B24BF00F8013B00F801CB48BFF5
:1004F00000F8012B704710B5203AC0F00B80B1E82E
:100500001850203AA0E81850B1E81850A0E8185048
:10051000BFF4F5AF5FEA027C24BFB1E81850A0E851
:10052000185044BF18C918C0BDE810405FEA827C6B
:1005300024BF51F8043B40F8043B08BF7047D20782
:1005400028BF31F8023B48BF11F8012B28BF20F823
:10055000023B48BF00F8012B704702F0FF0343EA5B
:10056000032242EA024200F037B84FF0000200B521
:10057000134694469646203922BFA0E80C50A0E8C6
:100580000C50B1F12001BFF4F7AF090728BFA0E874
:100590000C5048BF0CC05DF804EB890028BF40F840
:1005A000042B08BF704748BF20F8022B11F0804F82
:1005B00018BF00F8012B704770477047704710B59F
:1005C00000F02AF8006810BD10B5044600F024F8C9
:1005D000046010BD4FF000020429C0F0128010F03A
:1005E000030C3FF4C4AFCCF1040CBCF1020F18BFF4
:1005F00000F8012BA8BF20F8022BA1EB0C01FFF79C
:10060000B6BF5FEAC17C24BF00F8012B00F8012BC4
:1006100048BF00F8012B704700487047645F002016
:1006200000487047645F00207546FFF7F9FFAE464B
:1006300005006946534620F00700854618B020B5EE
:10064000FFF706FFBDE820404FF000064FF000071F
:100650004FF000084FF0000B21F00701AC46ACE86A
:10066000C009ACE8C009ACE8C009ACE8C0098D46D7
:10067000704710B50446AFF300802046BDE8104037
:10068000FFF76BBE01491820ABBEFEE72600020053
:100690007047000010B504463A48007838B9AA2CD3
:1006A00005D10120374908703748047069E03548A2
:1006B000007801280AD1AF2C08D1022031490870F6
:1006C000314800782044304908705AE02D480078BD
:1006D00002280CD1F12C0ADA03202A4908702B4891
:1006E00004702948007820442749087049E02548CB
:1006F000007803280FD11E2C0DDA04202149087040
:10070000224844700020224908701F480078204485
:100710001D49087035E01B48007804281BD11B4890
:100720004078002817DD1A4801780078401C184AE4
:1007300010701648801C4454134800782044124915
:1007400008701248407811460978884219D105206E
:100750000C49087015E00B48007805280ED10020E0
:100760000849087008480078A04203D1074803F000
:100770009DF906E000200349087002E000200149CD
:10078000087010BD7902002077020020C40F0020FD
:100790007802002070B505460C464220005D012815
:1007A0000CD1D4ED0B0A95ED071A70EEC10AB0EE2C
:1007B000600A164805F054FA84ED0F0A4220005DE5
:1007C000C0B1D4ED0F0A95ED0B1A70EEC10AB0EE70
:1007D000600A0E48583805F043FA0D4880ED000ACB
:1007E00090ED000A0B48D0ED000A30EE200A0A48CE
:1007F00080ED000A9FED091ADFED090A064890ED29
:10080000000A03F092FE84ED120A70BDF408002085
:1008100038000020440000203C0000200040CE446E
:100820000040BA4470B505460C469FED080A84EDB9
:100830000B0A9FED071ADFED070A074890ED000A43
:1008400003F073FE044880ED000A70BD0000C8424A
:1008500000C0C6440080C0444400002010B50B48CE
:1008600090ED120A0A4880ED000A9FED0A1ADFEDAA
:100870000A0A90ED000A03F058FE054880ED000AD0
:10088000BBEE020A014880ED0F0A10BDF00B0020FC
:100890003000002000C0C6440080C04410B50421D0
:1008A000054800F049FBC043C4B222460421024877
:1008B00000F093FB10BD00000050024010B5042270
:1008C0001146024800F089FB10BD000000500240B4
:1008D00010B500220421024800F07FFB10BD00008B
:1008E0000050024010B5164801F06EFB154801F0AB
:1008F0006BFB012000F0F8FA40F2014000F0F4FA3E
:1009000003214FF0402000F059FB05210E4801F073
:10091000E8FC0E4A4FF4E131002001F045FD0A48A1
:1009200001F022FD1021084801F025FD0849064884
:1009300001F025FD8021152000F01CFC10BD0000F9
:10094000000800F0001800F000C000400024F4008F
:10095000A921000010B5154801F036FB144801F03C
:1009600033FB4FF0011000F0BFFA124800F0BCFA60
:100970000321114800F022FB0521104801F0B1FCD1
:100980000F4A4FF4E121012001F00EFD0B4801F068
:10099000EBFC1021094801F0EEFC0A49074801F080
:1009A000EEFC4021162000F0E5FB10BD010800F030
:1009B000011800F0010401000050004000D0004088
:1009C0000024F400DD21000010B5154801F0FCFA08
:1009D000144801F0F9FA144800F086FA134800F0C0
:1009E00083FAC021124800F0E9FA01F02DFA04461A
:1009F00060234FF4165221460E4801F075FC0D4855
:100A000001F0B2FC10210B4801F0B5FC0A4909487D
:100A100001F0B5FC60214B2000F0ACFB10BD0000E4
:100A2000020800F0031800F001180200011C020087
:100A30000060004000F000401122000010B5154891
:100A400001F0C2FA144801F0BFFA144800F04CFA61
:100A5000134800F049FA3021124800F0AFFA01F0D3
:100A6000F3F9044660234FF4E13221460E4801F0C9
:100A70003BFC0D4801F078FC10210B4801F07BFC99
:100A80000A49094801F07BFC80214E2000F072FBEE
:100A900010BD0000030800F0061800F0011003006C
:100AA0000114030000700040002001404D220000AE
:100AB00010B5154801F088FA144801F085FA144879
:100AC00000F012FA134800F00FFA0321124800F068
:100AD00075FA01F0B9F9044660234FF4E13221467A
:100AE0000E4801F001FC0D4801F03EFC10210B48BE
:100AF00001F041FC0A49094801F041FC60214F2006
:100B000000F038FB10BD0000040800F0071800F0EA
:100B100001000400010404000040024000300140D4
:100B2000812200004FF4807202FB001200EE102AB6
:100B3000F8EEC00AB2EE041A80EE810A7047000097
:100B400010B50220FFF724FC01F04AFD0B48C469F0
:100B500004F00C0008B1022010BD094801F04EFA63
:100B60000220FFF715FC01F03BFD0448C46904F0C6
:100B70000C0008B10220EFE70020EDE700F00A408A
:100B8000005800F02DE9F04107460E46144600BF1C
:100B90002C48856905F001000028F9D1B0092949E0
:100BA0004860C6F383008860A40838E026480068DF
:100BB000264908402649884206D12348006880B269
:100BC00010B9304601F0ECFC1E49386848610A2033
:100BD000FFF7DEFB00BF1B48856905F00100002818
:100BE000F9D105F0100078B117480068174908409E
:100BF0001749884205D11448006880B208B901F04D
:100C0000B3FC2846BDE8F0813F1D641E3CB10D4891
:100C1000806820B90B484068401C0A494860002C95
:100C2000C4D109480068094908400949884205D1EA
:100C30000548006880B208B901F096FC0148806957
:100C4000E0E7000000F00A4000E00F400000FF7005
:100C50000000051010B58B090B4C6360C1F38303D2
:100C6000A36092080DE0084B5B690360001D521EF3
:100C70003AB1054B9B6823B9034B5B685B1C024C84
:100C80006360002AEFD110BD00F00A4010B50348A0
:100C900001F09AF9FFF754FF10BD0000005800F072
:100CA00010B508221146024800F097F910BD000067
:100CB0000050024010B500220821024800F08DF9D2
:100CC00010BD00000050024002F001031BB1D0F83B
:100CD00000340B4302E0D0F800348B43C0F80034FA
:100CE00002F002031BB1D0F820340B4302E0D0F82D
:100CF00020348B43C0F820347047C0F81C14704770
:100D0000D0F810240A43C0F81024704770B5044688
:100D10000D46204601F06EFC06462946304600F09E
:100D200043FA304600F0D6F970BD02F001031BB162
:100D3000D0F808340B4302E0D0F808348B43C0F8F5
:100D4000083402F002031BB1D0F804340B4302E074
:100D5000D0F804348B43C0F8043402F004031BB110
:100D6000D0F80C340B4302E0D0F80C348B43C0F8BD
:100D70000C3402F4803323B1D0F8383543F001034A
:100D800003E0D0F8383523F00103C0F83835704758
:100D9000F0B5002416E00125A5400D4085B1D0F83E
:100DA000C45F67000326BE40B543C0F8C45FD0F8F7
:100DB000C45F6700C2F34116BE403543C0F8C45F4C
:100DC000651CECB2082CE6DB02F001051DB1D0F881
:100DD00000550D4302E0D0F800558D43C0F8005592
:100DE00002F002051DB1D0F804550D4302E0D0F821
:100DF00004558D43C0F8045502F004051DB1D0F828
:100E000008550D4302E0D0F808558D43C0F8085549
:100E100002F008051DB1D0F818550D4302E0D0F8D6
:100E200018558D43C0F8185502F010051DB1D0F8C3
:100E30003C550D4302E0D0F83C558D43C0F83C557D
:100E400003F001051DB1D0F80C550D4302E0D0F8B8
:100E50000C558D43C0F80C5503F002051DB1D0F8B8
:100E600010550D4302E0D0F810558D43C0F81055D1
:100E700003F004051DB1D0F814550D4302E0D0F87D
:100E800014558D43C0F8145503F008051DB1D0F872
:100E90001C550D4302E0D0F81C558D43C0F81C557D
:100EA00003F400751DB1D0F844550D4302E0D0F8AD
:100EB00044558D43C0F8445503F440751DB1D0F836
:100EC00040550D4302E0D0F840558D43C0F84055E1
:100ED0001BB9D0F828550D4302E0D0F828558D43B2
:100EE000C0F82855F0BD000010B50146C1F3074019
:100EF0000F4BDB6E01248440234033B1012303EB0D
:100F000040030C4C54F8230003E04300094C54F810
:100F10002300C1F30722D0F82C350F249440A343BB
:100F200001F00F0494402343C0F82C3510BD00009D
:100F300000E00F40E89800000246002000EB81002E
:100F40001058704730B504460D4600222946204609
:100F5000FFF7BAFE0823012229462046FFF718FFB3
:100F600030BD30B504460D460823012229462046EF
:100F7000FFF70EFF012229462046FFF7A5FE30BDF0
:100F800030B504460D46022229462046FFF79CFE56
:100F90000823012229462046FFF7FAFE30BD30B56E
:100FA00004460D46022229462046FFF78DFE0823FF
:100FB000012229462046FFF7EBFE30BD30B504463E
:100FC0000D46022229462046FFF77EFE0823012215
:100FD00029462046FFF7DCFE30BD002303EB8103EA
:100FE000C250704710B504462548007838B9592CCE
:100FF00005D1012022490870224804703FE02048B2
:10100000007801280DD1592C0BD102201C49087001
:101010001C48447006201C49087000201B490870B9
:101020002DE017480078022819D1174800780028C9
:1010300015DD15480078401E1349087013480078E4
:1010400012490978491C114A1170801C0D490C5431
:101050000D48007898B90320094908700FE0084846
:101060000078032808D1002005490870054804725B
:10107000092101F019F802E000200149087010BDB3
:10108000F0010020940F0020EF010020E801002073
:10109000002003490870034908700349087070472D
:1010A00041000020490000203400002000200149B8
:1010B000086070470C00002040F2DC5004490880B2
:1010C00048804FF47A70888040F2DC50C8807047C6
:1010D0006C0D0020042806D11949096841F48031BB
:1010E000174A11602BE0052806D11549096841F41B
:1010F0000031134A116022E0062806D11049096820
:1011000041F480210E4A116019E00F2808D14FF0F8
:10111000E021096941F002014FF0E02211610EE087
:1011200010280CD3A0F1100101F01F020121914001
:10113000A0F110025209034B53F8222011607047AE
:1011400024ED00E0349A000010B5FFF714F908B15F
:10115000012010BD0020FCE7034951F82010034A8C
:101160001143034A11607047789900000000FA05A6
:101170000CED00E010B50A4683080A4C54F8233001
:1011800019688307DC0EFF23A34099438307DB0E16
:1011900002FA03F319438308024C54F82330196010
:1011A00010BD00009899000030B502460B4C246831
:1011B0000B4DAC420ED0094C2368002005E053F8DB
:1011C0002040074D45F82040401C9B28F7D3044C95
:1011D000024D2C60024C44F8221030BD08ED00E0B6
:1011E0000004002010B5044614B101201049087015
:1011F0000F48007888B101210E48FFF79DFE60B9C5
:101200000A2003F013FA0020094908700121094857
:10121000FFF792FE48B9012010BD01210548FFF7F4
:101220008BFE012801D1024908700020F4E700007C
:10123000F10100200050024010B5044614B1012015
:10124000104908700F48007888B110210E48FFF748
:1012500073FE60B90A2003F0E9F90020094908701B
:1012600010210948FFF768FE48B9012010BD102180
:101270000548FFF761FE012801D1024908700020EE
:10128000F4E70000F20100200050024091ED001A46
:1012900080ED001A91ED011A80ED011A90ED001A0F
:1012A00081ED021A90ED011A31EE001A81ED031A58
:1012B00091ED031AD1ED031A71EEA01A81EE212AE5
:1012C00081ED042A91ED051AD1ED021A71EE611A31
:1012D00091ED021A91ED042A02EE211A81ED001A15
:1012E00091ED041AF7EE001A31EEC11AD1ED031A8E
:1012F00021EE211A81ED011A7047000010B5134844
:1013000000F062FE124813490860081D006840F0B2
:101310000100091D08600020091F0860002201214A
:101320000D48FFF7D1FC0A23012211460A48FFF7B6
:101330002FFD002210210848FFF7C6FC0A230122D6
:1013400010210548FFF724FD10BD0000050800F03E
:101350004B434F4C205502400050024010B5064808
:1013600000F032FE0E210548FFF7FBFD0E2211466C
:101370000248FFF732FE10BD050800F000500240A1
:1013800010B5044694ED120ADFED1D0AB4EEE00A32
:10139000F1EE10FA11DB94ED120ADFED1A0AB4EE49
:1013A000E00AF1EE10FA08D294ED120AF7EE000A04
:1013B00030EE200A84ED120A20E094ED120ADFEDEF
:1013C000100AB4EEE00AF1EE10FA04D29FED0C0A16
:1013D00084ED120A12E001200B490870B3EE0B0AEB
:1013E00084ED0F0A0020094908809FED060A08488D
:1013F00080ED000A9FED070A06F05AFD10BD0000BF
:10140000008093440020C6444100002032020020A6
:10141000440000200000000010B51A4800780128A0
:1014200010D119480078012804D15421174800F040
:101430004AFF25E01448007810BB3221134800F021
:1014400042FF1DE00F480078022819D110480078AB
:10145000012804D132210F4800F035FF10E00C487C
:101460000078022804D133210A4800F02CFF07E05D
:1014700007480078042803D13421064800F023FFF0
:1014800010BD00006C02002055000020002001402B
:10149000C401002000C000401D49097829B9AA28CC
:1014A00003D101211A4A117031E019490978012943
:1014B00005D10221164A11701649087027E0144917
:1014C0000978022905D10321114A11701149487088
:1014D0001DE00F490978032916D100210C4A11702B
:1014E0000C4988700C490978012910D109490978FB
:1014F0000A4A118007494978094A118005498978C3
:1015000049B2084A117002E00021014A1170704787
:101510007A0200206D0200206C020020C801002029
:10152000CA010020C70100202A49097829B9AA2840
:1015300003D10121274A11704BE02649097801297E
:1015400005D10221234A11702349087041E0214945
:101550000978022905D103211E4A11701E494870DD
:1015600037E01C490978032905D10421194A117073
:10157000194988702DE017490978042905D10521FA
:10158000144A11701449C87023E0124909780529DA
:101590001CD100210F4A11700F4908710F490978B9
:1015A000022916D10C494A78097802EB01210C4A2C
:1015B00011800949CA78897802EB0121094A118012
:1015C0000549097949B2084A117002E00021014A2F
:1015D000117070477B020020720200206C02002014
:1015E000C8010020CA010020C701002010B52DED60
:1015F000028B0446B0EE408A3048007800F00100CB
:1016000020B922462E492F4800F096F82D4890ED3B
:10161000000A2D4802F064FB2C4880ED050A28489A
:1016200090ED000A2A4802F05BFB2A4880ED050A8B
:10163000DFED290A9FED290A24492948FFF726FEF4
:10164000DFED250A9FED250A22492648FFF71EFEF9
:101650001E4890ED000A84ED050A1E4890ED000A30
:1016600084ED060A1948D0ED000A90ED021A70EEDA
:10167000C10A9FED1D1A60EE810AB0EE600A1B4898
:1016800002F02EFB84ED090A1248D0ED000A90ED1D
:10169000021A70EEC10A9FED141A60EE810AB0EED4
:1016A000600A134802F01CFB84ED0A0A0348006834
:1016B000401C02490860BDEC028B10BDE401002013
:1016C000E0010020DC010020F40E0020640F002067
:1016D000100F00207C0F00208FC2753C6F12833BDF
:1016E000CC010020D40100200000C8422C0F0020B3
:1016F000480F002010B5FFF7F5F8FFF79FF9072214
:101700006421094802F0ACFB07226421074802F07B
:10171000A7FB06226421064802F0A2FB06226421F0
:10172000044802F09DFB10BDF40E0020100F0020B5
:101730002C0F0020480F002070B52DED028B0546C0
:101740000E461446FFF768FE3F480078012852D144
:1017500094ED010ADFED3D0A20EE200ABDEEC00A3D
:1017600010EE100A5022514202F0D4FE00EE100A90
:10177000B8EEC08A94ED020ADFED340A20EE200AAA
:10178000BDEEC00A10EE100A3C22514202F0C2FE29
:1017900000EE100AF8EEC08A2D48008800EE100A0C
:1017A000B8EE400A30EE480ADFED2A0A30EEC00AF1
:1017B000D4ED070A20EE200ADFED270A20EE200AEA
:1017C00085ED000A2548008800EE100AB8EE400AB0
:1017D00030EE280ADFED220A30EEC00AB1EE400AF0
:1017E000D4ED070A20EE200ADFED1B0A20EE200AC6
:1017F00086ED000A24E014480078022820D114481D
:101800000088C0F1A00000EB8000400000EE100A4C
:10181000B8EEC00ADFED100A20EE200A85ED000ABE
:101820000E480088783800EB8000400000EE100A77
:10183000B8EEC00ADFED080A20EE200A86ED000AA5
:10184000BDEC028B70BD00006C0200209A9919401B
:10185000C80100200000A0420AD7233CCA01002092
:101860000000704210B50A4800F0AEFB09490A4872
:1018700000F054FC0021084800F04CFC4F22FF21EE
:10188000054800F082FCFF21034800F077FC10BD02
:10189000015C00F0220000040070034010B5014418
:1018A0000B68094C234013430B6002F0020323B181
:1018B000B0230B621B014B6204E08C230B6240F6E9
:1018C0000C034B6210BD00000100F8FF425842F0CB
:1018D00001024250704701440B6803F0020313B148
:1018E00053080B6101E0531E0B617047012A03D1BD
:1018F00083680B43836002E083688B438360704797
:1019000030B5044621F03F052819056805F00205A9
:1019100005B1520803699B1A01F001050DB1C361BD
:1019200000E0836130BD000008B500200090FF2179
:101930000D4800F032FC0D4908600D480088098808
:10194000401A0C49088009480068094908600023CA
:101950006A4608490848006807F068F98021074886
:10196000FFF7CBF908BD0000007003402002002003
:101970001C020020240200201802002000700040F9
:1019800070B505460C462248007860B904F0F6F9B7
:101990009FED200A84ED090A9FED1E0A84ED0A0AD4
:1019A00001201B490870D4ED090A95ED051A70EE67
:1019B000C10AB0EE600A184804F052F984ED0D0A2D
:1019C000D4ED0A0A95ED061A70EEC10AB0EE600A6F
:1019D000124804F045F984ED0E0AD4ED0D0A95ED98
:1019E000091A70EEC10AB0EE600A0D4804F038F929
:1019F00084ED010AD4ED0E0A95ED0A1A70EEC10AC3
:101A0000B0EE600A074804F02BF984ED020A70BDBD
:101A10004900002000000000540A0020AC0A002009
:101A2000040B00205C0B002010B500F0F3FCFFF766
:101A300061FE00F061FB10BD10B52DED028B00F0D2
:101A400001FD474880ED000A00F05AFBB0EE408AE5
:101A50004448D0ED010A9FED441A60EE810AB0EED1
:101A6000600A00F013FE28EE008A3E48D0ED020A1C
:101A70009FED3D1A60EE810AB0EE600A00F006FEAE
:101A800028EE000A394880ED000A90ED000AB5EE14
:101A9000C00AF1EE10FA06DD3548006840F0080093
:101AA0003349086005E03248006820F008003049FA
:101AB00008603048007848B9294890ED000A2E485F
:101AC00080ED000A01202B4908701FE0274890EDA7
:101AD000000ADFED2A0AB4EEE00AF1EE10FA06D2AF
:101AE0001F4890ED000A244880ED000A0EE01F48D0
:101AF00090ED000ADFED210AB4EEE00AF1EE10FAF3
:101B000004DB90ED000A1C4880ED000A1A4890EDB5
:101B1000000A1B4802F0E4F81A4880ED050ADFEDE0
:101B20001A0A9FED1A0A01461948FFF7AFFB184839
:101B300090ED000A174880ED0D0A124890ED000A5A
:101B4000144880ED0E0A90ED0E0A064880ED070A53
:101B500006F042FE034880ED0B0ABDEC028B10BD7F
:101B6000B0010020780C002035FA8E3CB401002032
:101B700008000020AC010020B80100200000204235
:101B8000BC0E0020A40E00206F12833B6F12033B9B
:101B9000A40100203C0C002010B502210548FFF7ED
:101BA000CBF9C043C4B2224602210248FFF715FA1E
:101BB00010BD00000050024010B50222114602483C
:101BC000FFF70BFA10BD00000050024010B50022D4
:101BD00002210248FFF701FA10BD00000050024048
:101BE00010B54C888B1D18554B885B1C9BB24B80E5
:101BF000934201DB00234B804B880C88A34207D122
:101C00000B885B1C9BB20B80934201DB00230B8093
:101C100010BD00007CB50446094800F00BF900F047
:101C200013F90546082000231A462946CDE900404D
:101C3000034800F0B8F8024800F001F97CBD00004C
:101C4000008000402DE9F84304460D4616464FF447
:101C50007A7833E015B115F8010B00E0FF20074654
:101C600008E0B8F10000A8F101011FFA81F801D1E4
:101C7000BDE8F8836946144800F0C9F80028F0D19F
:101C80003946114800F0CEF84FF47A7807E0B8F101
:101C90000000A8F101011FFA81F800D1E8E70A4825
:101CA00000F07CF80028F2D16946074800F0A6F859
:101CB0000098C7B20CB104F8017B00BF301EA6F13A
:101CC0000106C7D10120D3E70080004038B50446A3
:101CD0004FF47A7505E0281EA5F101018DB200D1FF
:101CE00038BD69460E4800F092F80028F3D121462D
:101CF0000B4800F097F84FF47A7505E0281EA5F11F
:101D000001018DB200D1EBE7054800F047F800284B
:101D1000F4D16946024800F071F80098C0B2DFE7DC
:101D2000008000401CB51848007800B11CBD174861
:101D300000F04AF9164800F047F940F60200FFF7B4
:101D4000D3F841F20200FFF7CFF841F20240FFF76B
:101D5000CBF834214FF04020FFF721F900F074F860
:101D6000044608200B4900231A46CDE900102146FD
:101D7000094800F018F8084800F061F8012002490D
:101D8000087000BFD2E70000FD010020001C00F039
:101D9000000800F040420F00008000400146C86883
:101DA000C0F3001070472DE9F04F0C461D46DDE9E9
:101DB00009C815B94FF0000A01E04FF0040A574670
:101DC0004760B4FBFCF6002100BF891CB6FBF1FAAA
:101DD000AAF10103FF2BF8D801614FEA827A4FEA9A
:101DE0001A6902F0300249EA032A4AEA020AA8F113
:101DF000010B4AEA0B070760BDE8F08F00BFC2681D
:101E000002F00402002AFAD082680A607047024693
:101E1000D06800F0040018B1906808600120704795
:101E20000020FCE700BFC26802F00202002AFAD0DC
:101E300081607047416821F002014160704741684C
:101E400041F0020141607047F0B55048036E026FE7
:101E500002F0004010B102F0700001E003F0300029
:101E6000202811D003DC38B1102815D10AE0302821
:101E70000CD0702810D10CE04548C3F3841750F8FB
:101E800027100BE0434909E0434907E047F230518E
:101E900004E04FF4004101E00020F0BD00BF4FF02E
:101EA000FF3402F0004010B102F4006028B102F0EB
:101EB000004090BB03F4006078BB384805683348A5
:101EC000D0F8646106F01F00401CC6F304277F1C95
:101ED00010FB07F04000B1FBF0F1C5F309004843E7
:101EE000C5F389274F4300EB972143F4800327482C
:101EF000006900F47040B0F5804F13D006DCB0F5F7
:101F0000005F0BD0B0F5405F12D109E0B0F5E04FB3
:101F10000AD0B0F5104F0BD108E00BE0204C08E0E0
:101F2000204C06E0204C04E0204C02E0204C00E075
:101F300000BF00BF03F4800018B302F00040D8B126
:101F400002F0804090B102F0004010B102F4006055
:101F500028B102F0004048B903F4006030B94F00E6
:101F6000C2F38650401CB7FBF0F10AE0C2F3C55043
:101F7000401CB1FBF0F104E0C3F3C350401CB1FBC3
:101F8000F0F18C4200D22146084686E700E00F407F
:101F9000849A00000024F40000093D0060E10F4035
:101FA00000B4C40480F0FA02005A620240787D0155
:101FB000002D31010349096E21F4F0110143014A5A
:101FC0001166704700E00F4010B50121C0F30722F1
:101FD000094B1A4402F0704242F00072C0F307232A
:101FE000054C2344C3F3130342EA4312C3B242EA4B
:101FF0008302116010BD000000E60F4018B50121FA
:10200000C0F30722184B1A4402F0704242F00072EB
:10201000C0F30723144C2344C3F3130342EA4312CF
:10202000C3B242EA830211600021009102E00099EC
:10203000491C009100991029F9D30021C0F307220F
:10204000094B1A4402F0704242F00072C0F30723B9
:10205000054C2344C3F3130342EA4312C3B242EADA
:102060008302116018BD000000E50F4010B54FF06D
:102070008070406CC16D0148884710BD400500C1AB
:1020800070B504460D461646B20021462846FEF7B6
:10209000E1FD70BD70B504460D461646B2002146FE
:1020A0002846FEF76FFD70BD10B50A4600230021DB
:1020B00004E0445C1C44E3B24C1CE1B2541E8C426C
:1020C000F7DC017A994200D010BD8178C47841EAEA
:1020D0000421064C21800179447941EA0421044C11
:1020E00021808179034C217000BFEDE7EA010020D7
:1020F000EC010020EE01002010B5FEF7D9FC10BD68
:102100000348008800EE100AB8EE400A704700004D
:10211000EA010020C0F8C81F70470000C26840F202
:1021200001139A43C2600A0E0260114A1268114BF1
:102130001A40114B9A4211D1CAB201F4702342EAFB
:10214000131242F40072426001F47002C1F30723DB
:1021500043EA122242F40072826008E0CAB242F4FA
:1021600000724260C1F3072242F40072826070473D
:1021700000E00F400000FF7000000A10C26840F24B
:1021800001130B401A43C2607047CBB203B18263A4
:1021900001F47F4303B1C26370470246FF2901D1B6
:1021A000906C7047D06CFCE770B501210A4800F0D4
:1021B000F5F805462946084800F0DBF806E0064831
:1021C00000F078F8C4B22046FFF7AEF9024800F0FC
:1021D00082F80028F3D170BD00C0004070B5012125
:1021E0000A4800F0DBF805462946084800F0C1F827
:1021F00006E0064800F05EF8C4B22046FEF74AFA50
:10220000024800F068F80028F3D170BD00D000400B
:1022100070B501210B4800F0C1F805462946094870
:1022200000F0A7F808E0074800F044F8C4B2042220
:1022300005492046FFF7D4FC024800F04CF800287E
:10224000F1D170BD00F00040E40F002070B5012115
:102250000A4800F0A3F805462946084800F089F826
:1022600006E0064800F026F8C4B22046FFF714F94D
:10227000024800F030F80028F3D170BD0020014082
:1022800070B501210A4800F089F80546294608483A
:1022900000F06FF806E0064800F00CF8C4B22046E3
:1022A000FEF7A0FE024800F016F80028F3D170BD3A
:1022B00000300140014600BF886900F0100000288E
:1022C000FAD10868704700BF826902F02002002A34
:1022D000FAD10160704701468869012222EA101094
:1022E0007047C0F8C81F7047F0B504460E46154643
:1022F0001F46204600F01EF8B6EB051F05D2206BE6
:1023000040F0200020636D0803E0206B20F02000E7
:102310002063F000B0FBF5F0401C430898096062B0
:1023200003F03F00A062E7620020A061204600F0B9
:1023300011F8F0BD00BF816901F008010029FAD150
:10234000C16A21F01001C162016B40F20132914378
:1023500001637047C16A41F01001C162016B40F234
:102360000132114301637047C16A21F01001C1625B
:10237000704741647047826B0A438263704770B54F
:1023800004460D46204600F05BF9064629463046D5
:10239000FEF70AFF3046FEF79DFE70BD024609B10A
:1023A000106C7047D06BFCE72DE9F04104460D46F8
:1023B0001646154A52F824004FF08072526C11698B
:1023C000884708B9BDE8F081104850F8240010494A
:1023D00008600D4A52F824004FF08072526C9169E7
:1023E00088474FF08070406960232A46314647692C
:1023F00007480068B8474FF080704069C1690448D9
:102400000068884700BFDDE7689D00005C9D000014
:102410007C02002010B500F00FF806226421044869
:1024200001F01EFD06226421024801F019FD10BDD5
:10243000BC0E0020D80E002010B5FEF7C5FA012012
:1024400010BD000010B50B4800680521B0FBF1F28B
:1024500001FB120020B900F011F8074880ED000AD6
:1024600004480068401C03490860034890ED000AD6
:1024700010BD0000100200201402002010B52DED48
:10248000028B00F069F82F4840882F4908800846E1
:1024900000882E490988401A002805DD2A4800884E
:1024A0002A490988401A04E02848008826490988F2
:1024B000401A022839D12448008850B9214A517A5B
:1024C000107AFEF72FFBB0EE408A012020490870F9
:1024D0002BE01D48008801280AD11A4A9179507AC8
:1024E000FEF720FBB0EE408A0120194908701CE07D
:1024F0001548008802280AD1124AD1799079FEF74E
:1025000011FBB0EE408A0120114908700DE00E4821
:102510000088032809D10B4A117AD079FEF702FB13
:10252000B0EE408A01200A49087007480088074930
:102530000880084880ED008AB0EE480ABDEC028BA6
:1025400010BD0000E40F0020020200200402002061
:102550000C0200200802002010B555210148FFF7A9
:10256000B2FE10BD00F0004010B50A20FDF710FFCC
:102570000320094908600A20FDF70AFF00200749E7
:10258000C1F8C0020A20FDF703FF002002490860DD
:102590000A20FDF7FDFE10BDFCD00F4000E00A4010
:1025A00070B50446E10901208840C5430A20FDF7C3
:1025B000EFFE0320084908600A20FDF7E9FE0748FE
:1025C000C0F8C0520A20FDF7E3FE0020024908606F
:1025D0000A20FDF7DDFE70BDFCD00F4000E00A4090
:1025E00000BF0348806900F001000028F9D170475E
:1025F00000F00A4030B502460C4B18240C48006825
:102600000C4D28400C4DA84201D10C4B1B2400213D
:1026100008E053F83100904203D103EBC100406859
:1026200030BD491CA142F4D30020F9E750970000C7
:1026300000E00F400000FF7000000A10109800003A
:1026400030B502460C4B08240C4800680C4D28405D
:102650000C4DA84201D10C4B00BF002108E053F8FB
:102660003100904203D103EBC100406830BD491CEA
:10267000A142F4D30020F9E7D89C000000E00F400D
:102680000000FF7000000A10189D000010EE101AE4
:1026900008B5444A6846B2EB410F28D94FF0E640EE
:1026A000B0EB410F94BF00204FF0FF300090009836
:1026B000002861DB60EE000A10F0010F45D010F039
:1026C000020FDFED391A9FED391A00EEE11ADFED46
:1026D000381A40EE811A21EEA01AF0EE400A40EEC0
:1026E000010A08BFF1EE600AB0EE600A08BD314B86
:1026F00021F0004293423CD911F0004FDFED2E0A49
:1027000020EE201ADFED2D0A19BF31EE601A71EEAE
:10271000200A31EE201A71EE600ABDEEE01A11EEC9
:10272000100A9FED271A00F0030000EEC10A9FED8A
:10273000251A009000EEC10A9FED231A00EEC10A8F
:102740009FED221A00EEC10AB1E79FED211A9FED1D
:10275000210A10F0020F00EE810A9FED1F1A00EE11
:10276000801AB7EE000A00EE810A18BFB1EE400AE7
:1027700008BD00F07FF89AE710EE100A4000B0F1B3
:102780007F4F3CBFB7EE000A08BD07D14FF00100F4
:10279000FDF71AFFBDE8084000F064B8BDE8084046
:1027A00000F05DB8B61F927E336D4C39DA82083C7A
:1027B000A0AA2ABE490E494683F9223F0000004BD9
:1027C0000000C93F00A0FD390020A2331A61342C5B
:1027D000B93AB2BACA9F2A3DDDFFFFBE10B52DED52
:1027E000028BB0EE408A18EE100A06F02AFF04466B
:1027F000400010F1020F11D118EE100A06F078FF18
:1028000000EE904A00EE100AF8EEE00AB4EE600A1C
:10281000F1EE10FA1CBF0120FDF7D6FE2046BDECFC
:10282000028B10BD10B52DED028BB1EEC08A18EEF3
:10283000100A20F00040C0F1FF40C00F0AD010EE97
:10284000100A20F00040C0F1FF40C00F04BF01207B
:10285000FDF7BAFEB0EE480ABDEC028B10BD30EEBB
:10286000000A7047DFED020A80EEA00A7047000000
:10287000000000002DE9F0014FF07F42B2EB410F64
:102880009FBF4FF0FF310160BDE8F00170474FF08E
:10289000004242EA0123C1F3C752783A551112F0BF
:1028A0001F0C434CCCF120067C44C1F3C752A2F16B
:1028B00078024FEA621204EB820254F8254008BF06
:1028C000D2E9015612D0556804FA0CF425FA06F73D
:1028D0003C43976805FA0CF527FA06F8D26807FA20
:1028E0000CFCF24045EA08054CEA0206A4FB034C46
:1028F000A5FB0352A6FB03631D449D4234BF012682
:1029000000261319334416B1934202D903E09342CF
:1029100001D2012200E00022624402F1200C920662
:10292000DC0C42EA443200EE102A5B03DFED210AA0
:10293000F8EEC01A00EE103A4FEA9C1C11F0004F5E
:10294000B8EE400AC0F800C020EE201A00EE105A7F
:10295000DFED190AB8EE400A20EE200A71EE810A76
:1029600070EE800A10EE902A02F500626FF30B02FF
:1029700000EE902A70EEE11A31EEC11ADFED101A66
:1029800030EE411A9FED0D0A20EE800A01EE210A79
:102990009FED0C1A00EE810A04BFBDE8F0017047FC
:1029A000CCF180510160BDE8F001B1EE400A704702
:1029B000C8740000000000360000802C22AAFD2907
:1029C000DB0FC92F0000C92F10B52DED028BB0EE23
:1029D000408A02F019FE18B90020BDEC028B10BD30
:1029E00000240DE0BCEEC80A10EE102A91B2C4EB30
:1029F000C4021B4B03EB82000F2201F031FA641C6E
:102A0000032CEFDB1748B0F8880000BB1548B0F87E
:102A10008A00E0B91348B0F88C00C0B91148B0F989
:102A20008E00B0F5805F12D10E48B0F99000B0F57D
:102A3000805F0CD10B48B0F99200B0F5805F06D1F1
:102A40000948006820F002000749086005E00648D0
:102A5000006840F00200044908600120BDE7000062
:102A6000500E0020C80C0020080000200348B0F8D9
:102A7000520008B9012070470020FCE7FC0D00203F
:102A80000149A1F852007047FC0D00207CB50546B5
:102A90004C4802F069FD00B97CBD02224949084654
:102AA00000F09BFAFFF7E2FF50B946480168009139
:102AB0008088ADF80400DDE9000102F0ABFEEBE731
:102AC0004049B1F90010404AB2F98820891A3E4ABB
:102AD000B2F98E2001FB02F0C11700EB115109136E
:102AE00009B23A4A11803749B1F902203649B1F9A1
:102AF0008A10511A344AB2F98E2001FB02F0C11734
:102B000000EB1151091309B2304A51802D49B1F936
:102B100004202D49B1F98C10511A2B4AB2F98E209C
:102B200001FB02F0C11700EB1151091309B2274A4A
:102B300091801046B0F9000000EE100AB8EEC00A0D
:102B4000DFED230A80EE201A224880ED001A10469D
:102B5000B0F9020000EE100AB8EEC00ADFED1C0A60
:102B600080EE201A1B4880ED011A1046B0F90400CF
:102B700000EE100AB8EEC00ADFED150A80EE201A4A
:102B8000144880ED021A002413E0124901EB84017D
:102B9000D1ED000AB0EE600AC4EBC4010E4A02EBAC
:102BA000810001F09DF80B4800EB840080ED000AE5
:102BB000641C032CE9DB074A07CA85E8070000BF4D
:102BC0006AE7000098010020C80C00209E01002048
:102BD00000008045F00D0020500E002010B52DEDB6
:102BE000048BF0EE408AB0EEE80AB0EE408AF7EED1
:102BF000000A70EEC80AB0EE600AFFF713FEDFEDC0
:102C0000100A9FED101A41EE080A9FED0F1A08EE08
:102C1000201ADFED0E0A48EE010A20EE200AB0EE7F
:102C2000409AF5EEC08AF1EE10FA06D29FED080A3E
:102C300030EE490ABDEC048B10BDB0EE490AF9E74D
:102C40002716983D306E99BC843459BEA40DC93FF7
:102C5000DB0F494000B52DED048BA1B0002036E01C
:102C600000EB4002C14901EB820191ED000ADFED6A
:102C7000C00A80EE201A00EB40016A4602EB810197
:102C800081ED001A00EB4002B84901EB820191EDA1
:102C9000010ADFEDB70A80EE201A00EB40016A4618
:102CA00002EB810181ED011A00EB4002AF4901EB1B
:102CB000820191ED020ADFEDAF0A80EE201A00EBEF
:102CC00040016A4602EB810181ED021A401C0B288B
:102CD000C6DBDDED021AB0EE611ADDED011AF0EE91
:102CE000610ADDED001AB0EE610AB3EE093A012186
:102CF000DFEDA12A9FEDA12ADFEDA11AA14802F084
:102D000033FFDDED051AB0EE611ADDED041AF0EEC9
:102D1000610ADDED031AB0EE610AB3EE093A012152
:102D2000DFED952A9FED952ADFED951A95485830ED
:102D300002F01AFFDDED081AB0EE611ADDED071A98
:102D4000F0EE610ADDED061AB0EE610AB3EE093A63
:102D50000121DFED892A9FED8C2ADFED851A894854
:102D6000B03002F001FFDDED0B1AB0EE611ADDEDBF
:102D70000A1AF0EE610ADDED091AB0EE610A9FED64
:102D8000833A0021DFED7C2A9FED7F2ADFED7F1A59
:102D90007F4802F0E9FEDDED0E1AB0EE611ADDEDBE
:102DA0000D1AF0EE610ADDED0C1AB0EE610A9FED2E
:102DB000773A0021DFED702A9FED732ADFED731A59
:102DC0007348583002F0D0FEDDED111AB0EE611AF2
:102DD000DDED101AF0EE610ADDED0F1AB0EE610ABA
:102DE0009FED6A3A0021DFED642A9FED6A2ADFED4C
:102DF000671A6748B03002F0B7FEDDED141AB0EE86
:102E0000611ADDED131AF0EE610ADDED121AB0EE73
:102E1000610AB2EE0E3A0121DFED5F2A9FED5F2AD3
:102E2000DFED531A5E4802F09FFEDDED171AB0EE9B
:102E3000611ADDED161AF0EE610ADDED151AB0EE3D
:102E4000610A9FED523A0021DFED532AB3EE082AC2
:102E5000DFED4E1A5248583002F086FE9DED1A0AF8
:102E6000F2EE040A80EE201AB0EE418A9DED190AB6
:102E7000F2EE040A80EE201AF0EE418A9DED180A67
:102E8000F2EE040A80EE201AB0EE419AB1EE043A56
:102E90000121DFED412AB1EE082ADFED351AB0EE4F
:102EA000481AF0EE680AB0EE490A3D48B03002F028
:102EB0005BFE58223A49B0313A48FDF71CFB5822D4
:102EC0003749B0313848FDF716FB9DED1D0AF2EE8B
:102ED000040A80EE201AB0EE418A9DED1C0AF2EE43
:102EE000040A80EE201AF0EE418A9DED1B0AF2EEF4
:102EF000040A80EE201AB0EE419AB1EE043A0121A4
:102F0000DFED252A9FED1A2AF3EE041AB0EE481AD7
:102F1000F0EE680AB0EE490A244802F025FE582275
:102F200022492348FDF7E7FA582220492148FDF7B6
:102F3000E2FADDED201AB0EE611ADDED1F1AF0EEB7
:102F4000610ADDED1E1AB0EE610AB2EE0E3A012101
:102F5000DFED112A9FED0C2ADFED051A13485830DA
:102F600002F002FE21B0BDEC048B00BDCC0C0020B1
:102F70000000C84200007A446F12033B0000FA438D
:102F8000000048438C06002000009643000000002B
:102F900094070020000016430AD7A33C00007042AB
:102FA0009C080020040B00205C0B0020A4090020DA
:102FB000540A0020AC0A0020002801DA424200E056
:102FC00002468A4201DA002006E0002801DD401AAC
:102FD00002E0002800DA0844704770B50C46154638
:102FE000B4F90010B4F90220B4F90430092D06D266
:102FF000DFE805F005060A10181E262C340000BF75
:1030000001804280838033E002804E4236B24680A7
:1030100083802DE04E4236B20680564236B246805C
:10302000838025E0564236B20680418083801FE0CF
:103030004E4236B2068042805E4236B2868017E04B
:10304000028041805E4236B2868011E001805642A5
:1030500036B246805E4236B2868009E0564236B2CB
:1030600006804E4236B246805E4236B2868000BF4F
:1030700000BF70BDB0EE401AF0EEE02AF0EE621A2A
:10308000F0EEC12AB0EE622AF4EEC21AF1EE10FAA6
:1030900002DDF0EE612A01E0F0EE422AB0EE620AB3
:1030A000B5EEC00AF1EE10FA0ED0F4EEC21AF1EE4F
:1030B00010FA02D2F0EE612A01E0F0EE422A82EE2E
:1030C000803AB0EE430A03E0DFED222AB0EE620A56
:1030D000DFED212A9FED213A53EE002A9FED203AA1
:1030E00012EE803ADFED1F2A53EE002A9FED1E3AC2
:1030F00012EE803AF1EE433ADFED1C2A9FED1C3AC6
:1031000043EE002AB7EE003A02EE803AC3EE832A7D
:10311000B0EE620AB4EEE12AF1EE10FA05DDDFED61
:10312000152A72EEC02AB0EE620AF5EEC00AF1EE80
:1031300010FA05D2DFED102A72EEC02AB0EE620A54
:10314000B5EEC01AF1EE10FA03D2F1EE402AB0EE5D
:10315000620A704700000000E3B59E3E39094E3D0B
:1031600088FA163E45FE7F3FA7DFA83469A2163EC7
:1031700099FB243FDB0FC93FDB0F49400146AA20E2
:1031800000F1AF02D0B20A780244D0B24A780244C9
:10319000D0B2002204E08B1C9B5C0344D8B2521CCA
:1031A0004B789342F7DC704710B50848007800B1BF
:1031B00010BD002220210A2005F098FB0449086078
:1031C00001200249087000BFF2E7000068000020FB
:1031D0006C00002070B52DED028B0446207801288C
:1031E00040D1A078222823D00CDC042819D004DC9C
:1031F000012810D0022834D10EE0052812D0212851
:103200002FD110E0232818D024281BD025281ED029
:10321000262826D120E024E04FF4C87001F02AFCD3
:103220001FE01EE01DE04FF4C870FFF729FC18E016
:103230004FF4C870FFF724FC13E04FF4C870FFF799
:103240001FFC0EE04FF4C870FFF71AFC09E04FF4C2
:10325000C870FFF715FC04E04FF4C870FFF710FCCE
:1032600000BF9FE1207802287ED1A07801287CD180
:10327000FE48D0ED094AB0EE644AD0ED084AF0EEBF
:10328000643AD0ED074AB0EE643AD0ED064AF0EE6B
:10329000642AD0ED054AB0EE642AD0ED044AF0EE7F
:1032A000641AD0ED034AB0EE641AD0ED024AF0EE93
:1032B000640AD0ED014AB0EE640A012003F066FD15
:1032C000EA48D0ED124AB0EE644AD0ED114AF0EE71
:1032D000643AD0ED104AB0EE643AD0ED0F4AF0EE09
:1032E000642AD0ED0E4AB0EE642AD0ED0D4AF0EE1D
:1032F000641AD0ED0C4AB0EE641AD0ED0B4AF0EE31
:10330000640AD0ED0A4AB0EE640A022003F03EFDE2
:10331000D648D0ED1B4AB0EE644AD0ED1A4AF0EE22
:10332000643AD0ED194AB0EE643AD0ED184AF0EEA6
:10333000642AD0ED174AB0EE642AD0ED164AF0EEBA
:10334000641AD0ED154AB0EE641AD0ED144AF0EECE
:10335000640AD0ED134AB0EE640A032003F016FDB0
:10336000C24890ED213A01E0A6E19AE0F0EE432A4E
:1033700090ED203AB0EE432A90ED1F3AF0EE431A5A
:1033800090ED1E3AB0EE431A90ED1D3AF0EE430A6E
:1033900090ED1C3AB0EE430A9FEDB54ADFEDB43A2A
:1033A0009FEDB33A042003F0F1FCB048B0F9980067
:1033B00000F57A7004EE900AF8EEE44AB0EE644A42
:1033C000AA48B0F9960000F57A7004EE900AF8EE7B
:1033D000E44AF0EE643AA548B0F9940000F57A703A
:1033E00004EE900AF8EEE44AB0EE643A9F48B0F971
:1033F000920004EE900AF8EEE44AF0EE642A9B484C
:10340000B0F9900004EE900AF8EEE44AB0EE642AB7
:103410009648B0F98E0004EE900AF8EEE44AF0EE19
:10342000641A9248B0F98C0000F57A7004EE900AA4
:10343000F8EEE44AB0EE641A8C48B0F98A0000F560
:103440007A7004EE900AF8EEE44AF0EE640A8748D7
:10345000B0F9880000F57A7004EE900AF8EEE44ABC
:10346000B0EE640A052003F091FC82480088C0F3A6
:10347000402008EE100A9FED7E4ADFED7D3A9FED79
:103480007C3ADFED7B2A9FED7A2AF8EE481A9FED11
:10349000781ADFED770A9FED760A062003F076FCB6
:1034A00000BFA078A1287DD103F090FB04F0F0FCD0
:1034B0006E48D0ED094AB0EE644AD0ED084AF0EE0D
:1034C000643AD0ED074AB0EE643AD0ED064AF0EE29
:1034D000642AD0ED054AB0EE642AD0ED044AF0EE3D
:1034E000641AD0ED034AB0EE641AD0ED024AF0EE51
:1034F000640AD0ED014AB0EE640A012003F046FCF4
:103500005A48D0ED124AB0EE644AD0ED114AF0EEBE
:10351000643AD0ED104AB0EE643AD0ED0F4AF0EEC6
:10352000642AD0ED0E4AB0EE642AD0ED0D4AF0EEDA
:10353000641AD0ED0C4AB0EE641AD0ED0B4AF0EEEE
:10354000640AD0ED0A4AB0EE640A022003F01EFCC1
:103550004648D0ED1B4AB0EE644AD0ED1A4AF0EE70
:10356000643AD0ED194AB0EE643AD0ED184AF0EE64
:10357000642AD0ED174AB0EE642AD0ED164AF0EE78
:10358000641AD0ED154AB0EE641AD0ED144AF0EE8C
:10359000640AD0ED134AB0EE640A032003F0F6FB90
:1035A000324800E046E290ED213AF0EE432A90EDF9
:1035B000203AB0EE432A90ED1F3AF0EE431A90ED18
:1035C0001E3AB0EE431A90ED1D3AF0EE430A90ED2C
:1035D0001C3AB0EE430A9FED264ADFED253A9FEDF7
:1035E000243A042003F0D2FB2048B0F9980000F5FB
:1035F0007A7004EE900AF8EEE44AB0EE644A1B4892
:10360000B0F9960000F57A7004EE900AF8EEE44AFC
:10361000F0EE643A1548B0F9940000F57A7004EEC3
:10362000900AF8EEE44AB0EE643A1048B0F992001D
:1036300004EE900AF8EEE44AF0EE642A0B48B0F982
:10364000900004EE900AF8EEE44AB0EE642A0748CF
:10365000B0F98E0004EE900AF8EEE44AF0EE641A37
:103660000248B0F98C0000F57A7005E0C80C002023
:10367000000000000400002004EE900AF8EEE44A86
:10368000B0EE641AF748B0F98A0000F57A7004EEDB
:10369000900AF8EEE44AF0EE640AF248B0F98800C5
:1036A00000F57A7004EE900AF8EEE44AB0EE640A8F
:1036B000052003F06BFBF4E12078102875D1A07889
:1036C000000200B2E178084300EE100AB8EEC00A2A
:1036D000E44880ED010A2079000200B261790843D4
:1036E00000EE100AB8EEC00ADE4880ED020AA079AA
:1036F000000200B2E179084300EE100AB8EEC00AF9
:10370000D84880ED030A207A000200B2617A0843AB
:1037100000EE100AB8EEC00AD24880ED040AA07A82
:10372000000200B2E17A084300EE100AB8EEC00AC7
:10373000CC4880ED050A207B000200B2617B084383
:1037400000EE100AB8EEC00AC64880ED060AA07B5B
:10375000000200B2E17B084300EE100AB8EEC00A96
:10376000C04880ED070A207C000200B2617C08435B
:1037700000EE100AB8EEC00ABA4880ED080AA07C34
:10378000000200B2E17C084300EE100AB8EEC00A65
:10379000B44880ED090A2046FFF7F0FC0546207882
:1037A000294603F066FA7CE1FFE72078112875D1FD
:1037B000A078000200B2E178084300EE100AB8EEEB
:1037C000C00AA84880ED0A0A2079000200B2617997
:1037D000084300EE100AB8EEC00AA24880ED0B0ABA
:1037E000A079000200B2E179084300EE100AB8EEB9
:1037F000C00A9C4880ED0C0A207A000200B2617A6F
:10380000084300EE100AB8EEC00A964880ED0D0A93
:10381000A07A000200B2E17A084300EE100AB8EE86
:10382000C00A904880ED0E0A207B000200B2617B46
:10383000084300EE100AB8EEC00A8A4880ED0F0A6D
:10384000A07B000200B2E17B084300EE100AB8EE54
:10385000C00A844880ED100A207C000200B2617C1E
:10386000084300EE100AB8EEC00A7E4880ED110A47
:10387000A07C000200B2E17C084300EE100AB8EE22
:10388000C00A784880ED120A2046FFF777FC05460B
:103890002078294603F0EDF903E1FFE720781228AC
:1038A00075D1A078000200B2E178084300EE100A5A
:1038B000B8EEC00A6B4880ED130A2079000200B20E
:1038C0006179084300EE100AB8EEC00A654880ED41
:1038D000140AA079000200B2E179084300EE100A50
:1038E000B8EEC00A5F4880ED150A207A000200B2E7
:1038F000617A084300EE100AB8EEC00A594880ED1C
:10390000160AA07A000200B2E17A084300EE100A1B
:10391000B8EEC00A534880ED170A207B000200B2BF
:10392000617B084300EE100AB8EEC00A4D4880EDF6
:10393000180AA07B000200B2E17B084300EE100AE7
:10394000B8EEC00A474880ED190A207C000200B298
:10395000617C084300EE100AB8EEC00A414880EDD1
:103960001A0AA07C000200B2E17C084300EE100AB3
:10397000B8EEC00A3B4880ED1B0A2046FFF7FEFB6D
:1039800005462078294603F074F98AE0FFE720789D
:10399000132850D1A078000200B2E178084300EE6D
:1039A000100AB8EEC00A2F4880ED1C0A20790002E8
:1039B00000B26179084300EE100AB8EEC00A294847
:1039C00080ED1D0AA079000200B2E179084300EE03
:1039D000100AB8EEC00A234880ED1E0A207A0002C1
:1039E00000B2617A084300EE100AB8EEC00A1D4822
:1039F00080ED1F0AA07A000200B2E17A084300EECF
:103A0000100AB8EEC00A174880ED200A207B000299
:103A100000B2617B084300EE100AB8EEC00A1148FC
:103A200080ED210A2046FFF7A9FB054620782946AC
:103A300003F01FF935E02078142808D12046FFF75D
:103A40009DFB05462078294603F013F929E02078EC
:103A5000152826D1207A000200B2617A084318B1F5
:103A6000012002E0C80C00200020054635B10E48B8
:103A7000006840F400700C49086005E00A480068DE
:103A800020F40070084908602046FFF777FB0646DF
:103A90002078314603F0EDF804F0FAF903F0B4F8B9
:103AA00000BFBDEC028B70BD0400002010B50446C1
:103AB00000235A1E21460448006805F01FF808B18B
:103AC000012010BD0020FCE76C00002030B587B05D
:103AD000764800881E2190FBF1F201FB120088BBA2
:103AE000002473480078C0F340057248007800F065
:103AF000010000B101246F48007800F0080000B117
:103B000002246C48007800F0200000B103246A49C8
:103B100091ED071ABDEEC11A11EE100A91ED021ACD
:103B2000B1EE411AF0EE410A91ED011AB0EE410AF0
:103B30002A462146614B93ED001AB1EE411A03F07B
:103B400053FB00BF594800880A2190FBF1F201FBAA
:103B50001200002866D15A480078642110FB01F158
:103B6000554890ED010ADFED570A20EE200ABDEE20
:103B7000C00A10EE100A00B2534A92ED000AF2EEAB
:103B8000040A20EE200ABDEEC00A10EE102A12B27E
:103B9000494B93ED020ADFED4D0A20EE200ABDEEFF
:103BA000C00A10EE103A1BB2CDE90132CDE9030193
:103BB000474890ED020ADFED450A20EE200ABDEEEF
:103BC000C00A10EE100A00B23B4C009094ED070AB8
:103BD000F2EE040A20EE200ABDEEC00A10EE104AF2
:103BE00023B23C4C24784FF47A7514FB05F422B2CE
:103BF000314C94ED060ADFED330A20EE200ABDEECB
:103C0000C00A10EE104A21B22B4C94ED050ADFEDEC
:103C10002D0A20EE200ABDEEC00A10EE104A20B296
:103C200003F02DFA21480088282190FBF1F201FBD6
:103C30001200B8B92848408A27490A8AC989264B00
:103C40009B89CDE90231CDE90420234840892249EE
:103C50000989214CCDE9001063882288E188A08879
:103C600003F073F911480088282190FBF1F201FB61
:103C7000120058B90020009001900290174C039058
:103C8000E388A2886188208803F006F80748008846
:103C9000401C80B2054908804FF6FF71884202DB64
:103CA00001200249088007B030BD000070000020EC
:103CB000040000200C000020780C00205C02002092
:103CC000300200200000C842B401002000007A4405
:103CD000F00B0020C40100206C0D0020100000201B
:103CE000F0EE400A90ED051AD0ED001A01EEA01A90
:103CF000B0EE410A90ED011A21EE201AD0ED031A20
:103D000001EEC01AD0ED061A31EE211A80ED051A27
:103D100090ED021A21EE201AD0ED041A01EEC01A1D
:103D200080ED061A704700002DE9F0412DED0C8B57
:103D300004460D461646F0EE40AA1F4605EBD57127
:103D4000B6EB610F69DA00EE105AB8EE400AF0EEF9
:103D500040CA00EE106AB8EE400ADFED3F0A20EEDE
:103D6000200AC0EE2C0AB0EE60DAB0EE4D0A03F085
:103D7000FBFDF0EE40DAB0EE4D0A00F0EBFBF0EEAA
:103D8000408AB0EE000A2AEE800ACDEE800AB0EE3C
:103D900060BA17B1012F1ED114E0B7EE000A30EE61
:103DA000680AF0EE000A80EE209AB7EE000A70EE84
:103DB000689AB7EE000A30EE680AF0EE000A80EE6C
:103DC00020AA08E0B7EE009AB8EE000A68EE809AE2
:103DD000B7EE00AA00BF00BFB7EE000A3BEE008AB4
:103DE000B8EE000A68EE80BAB7EE000A30EE4BCAB1
:103DF00089EE080A84ED000A89EE880A84ED010A3A
:103E00008AEE080A84ED020A8BEE880A84ED030A22
:103E10008CEE080A84ED040A13E0B7EE000A84ED84
:103E2000000A9FED0E0A84ED010A9FED0C0A84ED55
:103E3000020A9FED0A0A84ED030A9FED080A84ED49
:103E4000040A9FED060A84ED060A84ED050ABDEC1E
:103E50000C8BBDE8F0810000DB0FC94000000000C2
:103E600070B52DED028B04460D461646B0EE000AE5
:103E7000FEF7D8FCF7EE000A80EE801AB0EE418A19
:103E80000023B0EE480A324629462046FFF74CFF91
:103E9000BDEC028B70BD00000448808840F24C41AC
:103EA000884201DA002070470120FCE76C0D0020F9
:103EB00010B501200349087004F0C8FF01494860AB
:103EC00010BD00003C02002070B505460C46FE49BE
:103ED000098808B2052100F08BFCFC490880FA49EA
:103EE000498808B2052100F083FCF8494880F6496A
:103EF000C98808B20A2100F07BFC404200B2F349B5
:103F0000C880F14988884FF4FA62511000F002FB32
:103F100000B2EE498880204602F066FEEC48007848
:103F200000F0020010B30221432001554420015546
:103F300045200155E549B1F900009FEDE60A02F080
:103F400029FE84ED050AE149B1F902009FEDE10A7D
:103F500002F020FE84ED060ADC49B1F906009FED6F
:103F6000DD0A02F017FE84ED070AA4E0D8480078C5
:103F700000F0010018B30221452001550121432022
:103F8000015544200155D149B1F90000B3EE0E0AA4
:103F900002F0DEFD84ED010ACC49B1F90200B3EE76
:103FA0000E0A02F0D5FD84ED020AC849B1F90600F7
:103FB0009FEDC80A02F0EEFD84ED070A7BE0C448DD
:103FC000007800F02000C8B10221452001550121F0
:103FD0004320015544200155BF4800680A21B0FB29
:103FE000F1F201FB1200002865D19FEDBC0A84EDBF
:103FF000070A21462846FDF7C3FC5CE0B448007878
:1040000000F00400002856D002214520015501216E
:104010004320015544200155AF4800680A21B0FBF8
:10402000F1F201FB1200A0BBAD48007820B99FED72
:10403000AD0A84ED020A25E0A9480078012804D1E0
:104040009FEDA90A84ED020A1CE0A5480078022829
:1040500018D1A6480088401CA4490880084600885A
:104060003C2804D19FEDA20A84ED020A0AE09F4891
:1040700000885A2806D19FED9F0A84ED020A00208D
:104080009A4908809C48007820B99FED9C0A84EDED
:10409000010A10E098480078012804D19FED980AA1
:1040A00084ED010A07E094480078022803D1BEEEAF
:1040B000000A84ED010A8648008800F4007090B37D
:1040C0009048007820B9FCF7C9FB01208D490870A1
:1040D00095ED070AF2EE0E0AB4EEE00AF1EE10FAE0
:1040E00003D38948007801281ED194ED120AF7EE17
:1040F000000A30EE600A84ED120A0120824908703D
:1041000094ED120ADFED810AB4EEE00AF1EE10FA46
:1041100008D201F067FB9FED7E0A84ED120A0020B1
:104120007949087080E01AE07A48007800F00200CF
:10413000002879D0684800680A21B0FBF1F201FB41
:104140001200002870D1022142200155BBEE020A64
:1041500084ED0F0A21462846FCF71CFB64E05C480E
:10416000007800F00800C8B10121422001555A48EA
:1041700000680A21B0FBF1F201FB1200F0BB6648B7
:10418000007830B921462846FCF74CFB01206249F3
:10419000087021462846FCF7FDFA45E04C480078B7
:1041A00000F0800058B35D48007840B94A48007874
:1041B00000F0010010BB2046FDF7E2F834E057485C
:1041C0000078D8B1444800680A21B0FBF1F201FB45
:1041D000120050B9022142200155B3EE0B0A84EDC2
:1041E0000F0A21462846FCF7D5FA95ED070ADFEDC0
:1041F0004C0AB4EEE00AF1EE10FA01E00AE00AE03F
:1042000012DD082000F096FA802000F07FFA0020EE
:104210004149087008E02D48B0F9040000EE100A8A
:10422000B8EEC00A84ED120A94ED120ADFED3D0AE1
:10423000B4EEE00AF1EE10FA03D89FED280A84EDFF
:10424000070A254800680A21B0FBF1F201FB1200C1
:10425000C0BB3548007801281AD11D48007800F00D
:10426000080078B331480088401C3049088008466F
:10427000008840F2EE21884224DB00202B49088090
:10428000082000F043FA4FF4007000F053FA75E094
:1042900025480078B0B90E48007800F0080088B1D1
:1042A00023480078012849D120480088401C1F4934
:1042B000088008460088B0F5967F5FDB03201C4924
:1042C000087037E05AE000006C0D00202802002042
:1042D0000C000020000048434402002000000000C1
:1042E000310200203333333FCDCCCC3D36020020A9
:1042F0006666E63E8FC2F5BD300200209A9919BF6E
:104300009A9959BF340000202800002000408344BF
:1043100000007A44040000204000002041000020FA
:104320000000B44200808944550000203202002081
:10433000C40100200020144908801FE013480078C1
:1043400003281BD1082000F0E1F94FF4007000F0C1
:10435000F1F90D480088401C0B4908800846008888
:10436000B0F5967F0ADB01F03DFA1FED170A84EDE8
:10437000120A0020064908700349088005480068B1
:10438000401C0449086070BD32020020C4010020B6
:10439000280000204402002070B5014600200B4692
:1043A000A424002204E013F8016B3518E8B2521C73
:1043B000A242F8D391F8A250451BE8B270BD0000AC
:1043C00010B52B48007800B110BDFCF75FFCA420AD
:1043D000284908600846007800F0030008B1012071
:1043E00000E000202349096800EB910021490860A2
:1043F0000846214902680020FDF742FE1E48007869
:104400000B280FD11C48FFF7C7FF1B4991F8A210DA
:10441000884203D101201949087006E0002017499D
:10442000087002E00020154908701448007890B91F
:10443000A42213491048FCF75EF80F48FFF7ACFFC1
:104440000D4981F8A2000B4802680020FDF722FE0A
:1044500001200A49087003220021012004F046FAD5
:104460000849086001200249087000BFACE700005D
:104470001C01002018010020C80C00201D01002094
:104480007400002020010020002435E000235A1E83
:1044900019461A48006804F051FA00BF04F0D6FC2F
:1044A00017490968401AB0F5FA6F1DD91548007808
:1044B00000F00200C0B91448FFF76EFF044612482E
:1044C00090F8A200A04208D00F4880F8A2400F4800
:1044D0000D4902680020FDF7DDFD0D48006820F061
:1044E00020000B490860D9E70023642219460348DD
:1044F000006804F023FAD1E7C8E70000200100209B
:104500002401002004000020C80C00201801002015
:104510000800002003468B4201DA084670479342A8
:1045200001DD1046FAE71846F8E7F0EE401AF4EE1F
:10453000E01AF1EE10FA02D2B0EE600A7047F4EE23
:10454000C11AF1EE10FA02DDB0EE410AF6E7B0EE64
:10455000610AF3E700B5F0EE402ADFED040A72EEDF
:10456000A00AB0EE600A03F0FFF900BDDB0FC93FFF
:1045700010B504460023142221460248006804F0C6
:10458000DDF910BD1802002010B5FDF76BF91B48CE
:10459000FDF71AFD1A481B490860081D006840F025
:1045A0008000091D08600020091F0860164917488F
:1045B000FCF7ACFB80211548FCF7C4FC0A23012260
:1045C00080211248FCF7E4FB002280210F48FCF711
:1045D000ACFB80210D48FCF793FB1320FCF77AFD20
:1045E00060211320FCF7C6FDFCF7AEFD002202217E
:1045F000402004F07BF90649086010BD030800F074
:104600004B434F4C207500402919000000700040BA
:104610001802002000EE100AB8EEC00ADFED020A10
:1046200020EE200A7047000035FA8E3C70B5044633
:10463000FDF70AFC40F6B831B0FBF1F000FB04F5E1
:104640004FF08070406CD0F888102846884770BDC5
:1046500000210161704700000169491C0161016985
:10466000012908D180ED010A80ED000ADFED150A6D
:10467000C0ED020A25E0D0ED000A30EE601AD0ED60
:10468000040AF8EEE01AC1EE210A90ED001A70EE6D
:10469000810AC0ED010AD0ED020A90ED001A30EE59
:1046A000411AD0ED011A70EE611A41EE210AC0EDF7
:1046B000030AD0ED010AC0ED000AD0ED030AC0EDF7
:1046C000020A70470000000010B52DED028B044671
:1046D000204600F007F8B0EE408AFEF7A3F8BDECE4
:1046E000028B10BD016901290ADDD0ED030A0169C1
:1046F000491E00EE101AB8EEC01A80EE810A70470B
:104700009FED010AFBE700000000000070B50446C1
:10471000074805680068A043054908600846006826
:10472000A84201D0FDF738FA0148006870BD0000CA
:104730000C00002070B50446074805680068204357
:104740000549086008460068A84201D0FDF724FA30
:104750000148006870BD00000C00002008B500256D
:1047600004F074FB00903CE00121684603F03AFE3F
:104770001420B5FBF0F100FB115010BB04F066FBF8
:10478000044618480079012803D101F0E9FC01F042
:104790005BFC1548007800F00200F0B11148007988
:1047A00018B11048407901280CD11048407840B920
:1047B0000E488068A04213D301200C494870FFF7CF
:1047C00077FB0DE0FFF768FB0646012E04D141F2AE
:1047D000883020440549886002E000200349886051
:1047E0006D1CC1E72C01002004000020840D002076
:1047F00070B504460D46A4F2DC504FF4FA725142F3
:10480000FFF788FE06B229463046FEF7D5FB06B212
:10481000304670BD03B5BDF90400002803DABDF9C8
:104820000400404201E0BDF9040000EE100AB8EEB9
:10483000C00AB7EE081AC0EE010ABDF90000002850
:1048400003DABDF90000404201E0BDF9000000EECE
:10485000100AB8EEC00AF4EEC00AF1EE10FA2CDD30
:10486000BDF90400002803DABDF90400404201E06C
:10487000BDF9040000EE100AB8EEC00AB7EE081A3F
:10488000C0EE010ABDF90200002803DABDF90200FA
:10489000404201E0BDF9020000EE100AB8EEC00A85
:1048A000F4EEC00AF1EE10FA07DDBDF904000028AD
:1048B00001DC01200CBD0020FCE7BDF90000002850
:1048C00003DABDF90000404201E0BDF9000000EE4E
:1048D000100AB8EEC00AB7EE081AC0EE010ABDF918
:1048E0000200002803DABDF90200404201E0BDF9F0
:1048F000020000EE100AB8EEC00AF4EEC00AF1EEB3
:1049000010FA2CDDBDF90000002803DABDF9000023
:10491000404201E0BDF9000000EE100AB8EEC00A06
:10492000B7EE081AC0EE010ABDF90400002803DA48
:10493000BDF90400404201E0BDF9040000EE100A98
:10494000B8EEC00AF4EEC00AF1EE10FA07DDBDF9C8
:104950000000002801DD0220ACE70320AAE7BDF932
:104960000200002803DABDF90200404201E0BDF96F
:10497000020000EE100AB8EEC00AB7EE081AC0EE48
:10498000010ABDF90000002803DABDF90000404229
:1049900001E0BDF9000000EE100AB8EEC00AF4EE26
:1049A000C00AF1EE10FA2CDDBDF90200002803DA8E
:1049B000BDF90200404201E0BDF9020000EE100A1C
:1049C000B8EEC00AB7EE081AC0EE010ABDF904003D
:1049D000002803DABDF90400404201E0BDF90400FB
:1049E00000EE100AB8EEC00AF4EEC00AF1EE10FABA
:1049F00007DDBDF90200002801DD04205AE705208B
:104A000058E74FF0FF3055E7014800787047000045
:104A10001800002010B52DED028BB0EE408A00F09A
:104A2000F3FD18B90020BDEC028B10BD4FF47A7075
:104A300000F020F800240DE0BCEEC80A10EE102AA9
:104A400091B2C4EBC402054B03EB82003222FFF7A4
:104A500007FA641C032CEFDB0120E4E79C0D002027
:104A60000348B0F8500008B9012070470020FCE767
:104A7000440100200149A1F8500070474401002082
:104A80007CB50546444800F097FD00B97CBD022284
:104A900041490846FEF7A1FAFFF7E2FFD8B93E48C0
:104AA000016800918088ADF80400DDE9000100F0A4
:104AB000EBFF9FED3A0A3A4880ED000A9FED370A76
:104AC00080ED010A9FED350A80ED020A024607CA11
:104AD00085E80700DAE73048008832498989401ABA
:104AE00000B2314908802C4841882E48C089081AF4
:104AF00000B22D494880284881882A48008A081A2F
:104B000000B2294988800846B0F9000000EE100A7A
:104B1000B8EEC00ADFED250A80EE201A204880EDAD
:104B2000001A0846B0F9020000EE100AB8EEC00AFA
:104B3000DFED1E0A80EE201A194880ED011A0846A2
:104B4000B0F9040000EE100AB8EEC00ADFED170A53
:104B500080EE201A124880ED021A002413E010495A
:104B600001EB8401D1ED000AB0EE600AC4EBC40190
:104B70000F4A02EB8100FFF7B3F8094800EB84000D
:104B800080ED000A641C032CE9DB054A07CA85E8AE
:104B9000070000BF7AE70000380100200000000095
:104BA000900D0020440100203E010020333383415A
:104BB0009C0D00205948D0ED004A64EEA44AB0EEA6
:104BC000640A5748D0ED004A64EEA44AF0EE640A45
:104BD0005448D0ED004A64EEA44AB0EE641A52483C
:104BE000D0ED004A4D4890ED005A64EE854AF0EE53
:104BF000641A4D48D0ED004A494890ED005A64EEE1
:104C0000854AB0EE642A4848D0ED004A454890ED08
:104C1000005A64EE854AF0EE642A4048D0ED004A1E
:104C20003F4890ED005A64EE854AB0EE643A3B4846
:104C3000D0ED004A3B4890ED005A64EE854AF0EE14
:104C4000643A3748D0ED004A364890ED005A64EE99
:104C5000854AB0EE644AF7EE004AB0EE005A45EEDF
:104C6000604AB0EE005A45EE414A3048C0ED004A75
:104C7000F1EE624A73EE244AB0EE005A64EE854AC1
:104C8000C0ED014AF1EE424A73EEE44AB0EE005A3A
:104C900064EE854AC0ED024AF1EE624A73EE644A60
:104CA000B0EE005A64EE854AC0ED034AF7EE004AC2
:104CB000B0EE005A45EE404AB0EE005A45EE414A89
:104CC000C0ED044AF1EE614A74EE244AB0EE005A97
:104CD00064EE854AC0ED054AF1EE424A73EEA44AFD
:104CE000B0EE005A64EE854AC0ED064AF1EE614A24
:104CF00074EE644AB0EE005A64EE854AC0ED074A8D
:104D0000F7EE004AB0EE005A45EE404AB0EE005AC7
:104D100045EE604AC0ED084A704700004C02002092
:104D2000500200205402002048020020A00F002062
:104D300010B52DED028B0F20FFF76CFCB0EE408A12
:104D4000FFF708FC034880ED000AFFF733FFBDECD6
:104D5000028B10BD5802002010B52DED108BB0EE67
:104D6000409AB0EE608AF0EE418AB0EE61BAF0EEA1
:104D7000429AB0EE62AA0446F0EE64AA29EE090A4D
:104D800008EE080A08EEA80AF0EE40FAB5EEC0BA3E
:104D9000F1EE10FA09D1F5EEC09AF1EE10FA04D155
:104DA000B5EEC0AAF1EE10FA7ED06BEE0B0A49EE1A
:104DB000A90A4AEE0A0AB0EE600A00F019FAB0EE4B
:104DC00040FA2BEE0F0AB0EE40BA29EE8F0AF0EE51
:104DD000409A2AEE0F0AB0EE40AA8C4890ED080ADD
:104DE00020EE290AD0ED070AF0EE40DA4AEE60DA4A
:104DF00090ED060A20EE0A0AD0ED080AB0EE40EA6D
:104E00000BEE60EA90ED070A20EE0B0AD0ED060AE1
:104E1000F0EE40EA49EEE0EA9FED7D0AF4EEC0FADA
:104E2000F1EE10FA35D29FED7B0A6DEE800A7A48DA
:104E300090ED000A00EEAA0A80ED000A9FED750AC7
:104E40006EEE000A754890ED000A00EEAA0A80EDA9
:104E5000000A9FED700A6EEE800A714890ED000A1C
:104E600000EEAA0A80ED000A6B4890ED000A39EEC8
:104E7000000AB0EE409A694890ED000A38EE000A48
:104E8000B0EE408A664890ED000A38EE800AF0EEF7
:104E9000408ADFED640AB0EE490A00EEAD0AB0EEDA
:104EA000409ADFED600A00E00EE0B0EE480A00EE46
:104EB0008E0AB0EE408ADFED5B0AB0EE680A00EEC3
:104EC000AE0AF0EE408A00BFB6EE000A2AEE800A73
:104ED00020EE090AB0EE409AB6EE000A2AEE800AE9
:104EE00020EE080AB0EE408AB6EE000A2AEE800AEA
:104EF00020EE280AF0EE408A4B4890ED00CA4B485D
:104F0000D0ED00CA4A4890ED00DAB1EE6C0A20EE0E
:104F1000090A0DEE480A4748D0ED000A00EEE80AFB
:104F20004148D0ED000A30EE200A80ED000A2CEE58
:104F3000090A0DEE280A3F48D0ED000A00EEC80A23
:104F40003A48D0ED000A30EE200A80ED000A2CEE3F
:104F5000080A0CEEE80A3748D0ED000A00EE890A8C
:104F60003348D0ED000A30EE200A80ED000A2CEE26
:104F7000280A0CEE880A0DEE490A2E48D0ED000AE8
:104F800030EE200A80ED000A2748D0ED000A60EEDE
:104F9000A00A264890ED001AD0ED001A41EE210A31
:104FA000234890ED001AD0ED001A41EE210A214865
:104FB00090ED001AD0ED001A41EE210AB0EE600A21
:104FC00000F016F9F0EE40BA174890ED000A20EE16
:104FD0002B0A80ED000A154890ED000A20EE2B0AFE
:104FE00080ED000A124890ED000A20EE2B0A80EDB9
:104FF000000A104890ED000A20EE2B0A80ED000A0E
:10500000FFF7D8FDBDEC108B10BD0000A00F0020F5
:10501000E68AF93D0AD7A33B600200206402002023
:10502000680200209A99193F480200204C02002093
:10503000500200205402002070B52DED028B8AB082
:1050400004460D46B0EE408A0026D4E90412E0681A
:1050500007AB07C3D4E901022168CDE90502049139
:10506000D4E90712A06901AB07C39DED070ADFED84
:10507000230A20EE200A8DED070A9DED080ADFEDD8
:105080001F0A20EE200A8DED080A9DED090ADFEDCA
:105090001B0A20EE200A8DED090ADDED034AB0EE71
:1050A000644ADDED024AF0EE643ADDED014AB0EE0D
:1050B000643ADDED064AF0EE642ADDED054AB0EE15
:1050C000642ADDED044AF0EE641ADDED094AB0EE23
:1050D000641ADDED084AF0EE640ADDED074AB0EE31
:1050E000640AF0EE484A3046FFF736FE284600F0E4
:1050F00007F80AB0BDEC028B70BD000035FA8E3C9B
:1051000010B50446324890ED081AF0EE410A90EDD1
:10511000071AB0EE410AFDF7ADFFDFED2E0A80EE73
:10512000201A84ED011A2A48D0ED060AF1EE600A31
:10513000B0EE600AFDF752FDDFED270A30EEC00A3F
:10514000DFED240A80EE201A9FED240A31EE400A9A
:1051500084ED020A1E4890ED001AF0EE410A90ED2F
:10516000031AB0EE410AFDF785FFDFED1A0A80EE63
:10517000201A84ED031A94ED030A194880ED000A01
:1051800094ED030AB5EEC00AF1EE10FA07D294EDE1
:10519000030ADFED140A30EE200A84ED030A0C48FE
:1051A00090ED080A1048D0ED000AB4EEE00AF1EEE6
:1051B00010FA06DD0D48006840F010000B49086049
:1051C00005E00A48006820F010000849086010BD9A
:1051D000A00F002035FA8E3CDB0FC93F9A99193F8A
:1051E0005C0200200000B4435802002008000020A8
:1051F00010B52DED028BB0EE408AB0EE480AFDF7F7
:1052000011FBB7EE001AC1EE000AB0EE600ABDEC69
:10521000028B10BD10B5FDF729FC08B9012010BDA7
:10522000FFF71EFC08B90120F9E70020F7E70000AE
:105230000348B0F85200012800D170470020FCE775
:10524000FC0D00200348B0F85000012800D1704741
:105250000020FCE7440100200448B0F85200B0F5FB
:10526000C87F01D1012070470020FCE7FC0D002021
:105270000448B0F85000B0F57A7F01D101207047A2
:105280000020FCE7440100202DED048B82B00024B7
:1052900003F0DCFD01907FE0012101A803F0A2F8FA
:1052A0003E48008804F066F941EC190B9FED3C0B79
:1052B00053EC102B04F006F841EC180B03F0D0FF70
:1052C000394908600020FBF7B7FF38B1374800784C
:1052D00008B9012000E00020344908703348007804
:1052E000012802D1FBF7F4FA01E0FBF7E7FA3048B6
:1052F000007850B90020FBF775FF30B101202C4930
:10530000087000202B49087009E02948007830B166
:105310000020FBF767FF10B100202549087014201A
:10532000B4FBF0F100FB114078BB2148007868B372
:105330002048007838BB20480068FA2805DA1E4863
:105340000068401C1C4908601DE000201A490860E4
:10535000FBF7B2FE00F01CFA14480078012806D1D1
:105360002020FFF7E7F98020FFF7E4F908E00F4875
:10537000007828B92020FFF7DDF98020FFF7DAF95F
:1053800001200C490870FBF795FC04E000200A4955
:105390000860FBF785FC641C7EE700009202002099
:1053A00000000000000059404C0000205500002083
:1053B0005400002056000020500000201FB502F0CD
:1053C00087FD0020084A0523CDE9012000930390C2
:1053D00003464FF4967205A1074803F09FFC03F0C3
:1053E0007DF900BFFEE70000000000205354415249
:1053F000545F5441534B00000D7B000010B54FF437
:105400009010FCF7D7FD2D48FCF7DEFD0220FAF7DF
:10541000BFFF2B48FCF7D8FD2948401CFCF7D4FD02
:105420000220FAF7B5FF2748FBF75EFD2648FBF799
:105430005BFD2648FBF758FD2548FBF755FD40214D
:105440002448FBF79DFD80212248FBF799FD1021A0
:105450002148FBF795FD20211F48FBF791FD002215
:1054600040211E48FCF71AFA00224FF480711B48B5
:10547000FCF714FA4CF250301949088008460288AB
:1054800040211648FCF727FA154802884FF480712E
:105490001248FCF720FA40211048FCF717FA4FF4A5
:1054A00080710E48FCF712FA0122C3210B48FCF769
:1054B0001DFA01200B49087010BD0000004000F0EB
:1054C000010800F004180100041C0100041002008F
:1054D00004140200005000400060004000800240C0
:1054E000FA010020FC01002070B504460D461C485E
:1054F000007888B334B1012C0FD0022C17D0032CC4
:105500002BD11FE0284601F015FB064632464FF42A
:1055100083711448FCF7F4F920E0284601F00AFBF7
:105520000646324640210F48FCF7EAF916E02846C5
:1055300001F000FB0646324640F207110948FCF72D
:10554000DFF90BE0284601F0F5FA06463246412124
:105550000448FCF7D5F901E001E000BF00BF70BDD1
:10556000FC010020008002401CB504461148007870
:1055700008B900201CBD6A4606213B2000F0D0F887
:105580009DF801009DF8001040EA012000B2208043
:105590009DF803009DF8021040EA012000B26080EF
:1055A0009DF805009DF8041040EA012000B2A0809B
:1055B0000120DFE7340100201CB5044611480078C3
:1055C00008B900201CBD6A460621432000F0A8F857
:1055D0009DF801009DF8001040EA012000B22080F3
:1055E0009DF803009DF8021040EA012000B260809F
:1055F0009DF805009DF8041040EA012000B2A0804B
:105600000120DFE73401002008B54248007808B1E6
:10561000012008BDFCF786FB3F48FCF7D5FC0823BA
:10562000012219464FF04020FBF7B2FB012208216E
:105630004FF04020FBF748FB082211464FF0402076
:10564000FBF7CBFC80216B2000F085F8322002F0C4
:1056500097FE0321682000F07EF8322002F090FED1
:1056600080216B2000F077F8322002F089FE0321C0
:10567000682000F070F8322002F082FE00200090D6
:105680006A460121752000F04BF89DF800001228B1
:105690003AD101216B2000F05EF80F2002F070FE7D
:1056A00010216A2000F057F80F2002F069FE002157
:1056B0006C2000F050F80F2002F062FE002119204B
:1056C00000F049F80F2002F05BFE18211B2000F0CB
:1056D00042F80F2002F054FE10211C2000F03BF88D
:1056E0000F2002F04DFE1021372000F034F80F207B
:1056F00002F046FE02211A2000F02DF8012002F0EF
:105700003FFE0120034908700448FCF783FA014872
:1057100000787EE734010020000800F0404B4C0088
:1057200070B504460D461646002208214FF0402071
:10573000FBF753FC44F08000FCF7C8FA2A4600212E
:105740003046FCF77FFA082211464FF04020FBF765
:1057500044FC012070BD70B505460C4600220821AE
:105760004FF04020FBF739FC012002F009FE2846EB
:10577000FCF7ACFA2046FCF7A9FA082211464FF0D4
:105780004020FBF72AFC012002F0FAFD012070BD49
:1057900010B502F0DDFB1148008800F47E70D0B92E
:1057A0000E48007800F0020000B110BDFBF77EFC4F
:1057B000FBF76EFC01200A4908700848006840F0B9
:1057C0000200064908600846006840F004000860CE
:1057D00002F062FBE9E700BFE7E7000004000020F9
:1057E000C40100200848007800F0020058B10648C3
:1057F000006820F002000449086001200349087095
:10580000002003490870704704000020C4010020F4
:105810005400002073B59AB0DDE91A01FEF7FAFFD3
:105820000446002C01DA1CB070BD2CBBFFF714FD40
:1058300010B3002014E000228F490A54002100EB2D
:1058400040028D4B4C3B43F8221000EB400203EB2F
:105850008202516000EB400203EB82029160401C27
:105860000628E8DB002084494C39886483480068B6
:1058700020F00200814908607F48005D002865D162
:1058800004EB44007C494C3951F82000BDF9681004
:10589000084404EB4401784A4C3A42F8210004EBF6
:1058A0004400114601EB80004068BDF96A100844CD
:1058B00004EB440102EB8101486004EB4400114613
:1058C00001EB80008068BDF96C10084404EB4401D2
:1058D00002EB81018860FFF7ABFCB8B30121664899
:1058E000015504EB440064494C3951F820004FF451
:1058F000C87190FBF1F004EB44015F4A4C3A42F866
:10590000210004EB4400114601EB800040684FF495
:10591000C87190FBF1F004EB440102EB8101486097
:1059200004EB4400114601EB800080684FF4C8711D
:1059300090FBF1F004EB440102EB8101886010461A
:10594000806C401C11468864FAF7A8FF4A484C381E
:10595000806C06287ED106A801F02CFE002509E007
:1059600005EB4500444A4C3A02EB800106A801F0E1
:10597000C3FC6D1C062DF3DB03A906A801F038FE5D
:1059800000250DE003A800EB8500D0ED000AB0EE85
:10599000600AFCF723FF01B2394820F815106D1C8E
:1059A000032DEFDB06A801F005FE002530E005EB36
:1059B000450031494C3951F8200031498839B1F955
:1059C0008810401A009005EB45002B494C3901EB3B
:1059D000800041682A488838B0F98A00081A019086
:1059E00005EB450024494C3901EB800081682448CF
:1059F0008838B0F98C00081A02902E4605EBD67054
:105A000041104FF480536A4606A801F078FD6D1CE2
:105A1000062DCCDB03A906A801F006FE002512E046
:105A200003A800EB8500D0ED000A9FED161A60EE8A
:105A3000810AB0EE600AFCF7D1FE01B21048801D69
:105A400020F815106D1C032DEADB0C48006840F0AF
:105A5000020000E004E00949086001F0D5F800BF49
:105A600005484C38B0F85200401E03494C39A1F8A3
:105A7000520000BFD7E60000480E002008000020BA
:105A8000500D00200000804513B52DED028B002441
:105A90005DE0FFF7EDFB50B10020324941F82400F2
:105AA00004EB8402143101EB8200FEF7D1FD2D4896
:105AB00050F8240002A931F914100844294941F88A
:105AC000240002A931F9141000EE901AF8EEE00A51
:105AD000B0EE600A04EB84022249143101EB82002B
